{
  "valid": {
    "build": [
      {
        "description": "Transaction w/ P2PKH -> P2PKH",
        "txHex": "0100000001ffffffffffffffffffffffffffffffffffffffffffffffffffffffffffffffff000000006b483045022100a3b254e1c10b5d039f36c05f323995d6e5a367d98dd78a13d5bbc3991b35720e022022fccea3897d594de0689601fbd486588d5bfa6915be2386db0397ee9a6e80b601210279be667ef9dcbbac55a06295ce870b07029bfcdb2dce28d959f2815b16f81798ffffffff0110270000000000001976a914aa4d7985c57e011a8b3dd8e0e5a73aaef41629c588ac00000000",
        "version": 1,
        "inputs": [
          {
            "txId": "ffffffffffffffffffffffffffffffffffffffffffffffffffffffffffffffff",
            "vout": 0,
            "signs": [
              {
                "keyPair": "KwDiBf89QgGbjEhKnhXJuH7LrciVrZi3qYjgd9M7rFU73sVHnoWn"
              }
            ]
          }
        ],
        "outputs": [
          {
            "script": "OP_DUP OP_HASH160 aa4d7985c57e011a8b3dd8e0e5a73aaef41629c5 OP_EQUALVERIFY OP_CHECKSIG",
            "value": 10000
          }
        ]
      },
      {
        "description": "Transaction w/ P2PKH -> P2WSH",
        "txHex": "0100000001ffffffffffffffffffffffffffffffffffffffffffffffffffffffffffffffff000000006a473044022056c99ba23eb15b3e666b188f87b04d5ef23eeda5298939cdaec35a3bddf3835602205887a5a460f299819b0c93948fafab8b2d64d8c051934431e3bb9acebef5d1b001210279be667ef9dcbbac55a06295ce870b07029bfcdb2dce28d959f2815b16f81798ffffffff01102700000000000022002032447752937d355ca2defddcd1f6b4fc53d182f8901cebbcff42f5e381bf0b8000000000",
        "version": 1,
        "inputs": [
          {
            "txId": "ffffffffffffffffffffffffffffffffffffffffffffffffffffffffffffffff",
            "vout": 0,
            "signs": [
              {
                "prevOutScriptType": "p2pkh",
                "keyPair": "KwDiBf89QgGbjEhKnhXJuH7LrciVrZi3qYjgd9M7rFU73sVHnoWn"
              }
            ]
          }
        ],
        "outputs": [
          {
            "script": "OP_0 32447752937d355ca2defddcd1f6b4fc53d182f8901cebbcff42f5e381bf0b80",
            "value": 10000
          }
        ]
      },
      {
        "description": "P2WPKH -> P2WPKH",
        "txHex": "01000000000101ffffffffffffffffffffffffffffffffffffffffffffffffffffffffffffffff0000000000ffffffff011027000000000000160014aa4d7985c57e011a8b3dd8e0e5a73aaef41629c502483045022100a8fc5e4c6d7073474eff2af5d756966e75be0cdfbba299518526080ce8b584be02200f26d41082764df89e3c815b8eaf51034a3b68a25f1be51208f54222c1bb6c1601210279be667ef9dcbbac55a06295ce870b07029bfcdb2dce28d959f2815b16f8179800000000",
        "version": 1,
        "inputs": [
          {
            "txId": "ffffffffffffffffffffffffffffffffffffffffffffffffffffffffffffffff",
            "vout": 0,
            "prevTxScript": "OP_0 751e76e8199196d454941c45d1b3a323f1433bd6",
            "signs": [
              {
                "prevOutScriptType": "p2wpkh",
                "keyPair": "KwDiBf89QgGbjEhKnhXJuH7LrciVrZi3qYjgd9M7rFU73sVHnoWn",
                "value": 10000
              }
            ]
          }
        ],
        "outputs": [
          {
            "script": "OP_0 aa4d7985c57e011a8b3dd8e0e5a73aaef41629c5",
            "value": 10000
          }
        ]
      },
      {
        "description": "SIGHASH SINGLE (random)",
        "txHex": "01000000012ffb29d53528ad30c37c267fbbeda3c6fce08f5f6f5d3b1eab22193599a3612a010000006b483045022100f963f1d9564075a934d7c3cfa333bd1378859b84cba947e149926fc9ec89b5ae02202b5b912e507bae65002aff972f9752e2aeb2e22c5fdbaaad672090378184df37032102f1c7eac9200f8dee7e34e59318ff2076c8b3e3ac7f43121e57569a1aec1803d4ffffffff0260a62f01000000001976a9140de1f9b92d2ab6d8ead83f9a0ff5cf518dcb03b888ac80969800000000001976a91454d0e925d5ee0ee26768a237067dee793d01a70688ac00000000",
        "version": 1,
        "inputs": [
          {
            "txId": "2a61a399351922ab1e3b5d6f5f8fe0fcc6a3edbb7f267cc330ad2835d529fb2f",
            "vout": 1,
            "signs": [
              {
                "keyPair": "KzRGFiqhXB7SyX6idHQkt77B8mX7adnujdg3VG47jdVK2x4wbUYg",
                "hashType": 3,
                "value": 30000000
              }
            ],
            "sequence": 4294967295,
            "prevTxScript": "OP_DUP OP_HASH160 0de1f9b92d2ab6d8ead83f9a0ff5cf518dcb03b8 OP_EQUALVERIFY OP_CHECKSIG"
          }
        ],
        "outputs": [
          {
            "value": 19900000,
            "script": "OP_DUP OP_HASH160 0de1f9b92d2ab6d8ead83f9a0ff5cf518dcb03b8 OP_EQUALVERIFY OP_CHECKSIG"
          },
          {
            "value": 10000000,
            "script": "OP_DUP OP_HASH160 54d0e925d5ee0ee26768a237067dee793d01a706 OP_EQUALVERIFY OP_CHECKSIG"
          }
        ]
      },
      {
        "description": "SIGHASH ALL",
        "txHex": "01000000037db7f0b2a345ded6ddf28da3211a7d7a95a2943e9a879493d6481b7d69613f04010000006a47304402206abb0622b8b6ca83f1f4de84830cf38bf4615dc9e47a7dcdcc489905f26aa9cb02201d2d8a7815242b88e4cd66390ca46da802238f9b1395e0d118213d30dad38184012102f1c7eac9200f8dee7e34e59318ff2076c8b3e3ac7f43121e57569a1aec1803d4ffffffff652c491e5a781a6a3c547fa8d980741acbe4623ae52907278f10e1f064f67e05000000006b483045022100de13b42804f87a09bb46def12ab4608108d8c2db41db4bc09064f9c46fcf493102205e5c759ab7b2895c9b0447e56029f6895ff7bb20e0847c564a88a3cfcf080c4f012102f1c7eac9200f8dee7e34e59318ff2076c8b3e3ac7f43121e57569a1aec1803d4ffffffffb9fa270fa3e4dd8c79f9cbfe5f1953cba071ed081f7c277a49c33466c695db35000000006b4830450221009100a3f5b30182d1cb0172792af6947b6d8d42badb0539f2c209aece5a0628f002200ae91702ca63347e344c85fcb536f30ee97b75cdf4900de534ed5e040e71a548012102f1c7eac9200f8dee7e34e59318ff2076c8b3e3ac7f43121e57569a1aec1803d4ffffffff03204e0000000000001976a9149ed1f577c60e4be1dbf35318ec12f51d25e8577388ac30750000000000001976a914fb407e88c48921d5547d899e18a7c0a36919f54d88ac50c30000000000001976a91404ccb4eed8cfa9f6e394e945178960f5ccddb38788ac00000000",
        "version": 1,
        "inputs": [
          {
            "txId": "043f61697d1b48d69394879a3e94a2957a7d1a21a38df2ddd6de45a3b2f0b77d",
            "vout": 1,
            "signs": [
              {
                "keyPair": "KzRGFiqhXB7SyX6idHQkt77B8mX7adnujdg3VG47jdVK2x4wbUYg",
                "hashType": 1,
                "value": 40000
              }
            ],
            "sequence": 4294967295,
            "prevTxScript": "OP_DUP OP_HASH160 0de1f9b92d2ab6d8ead83f9a0ff5cf518dcb03b8 OP_EQUALVERIFY OP_CHECKSIG"
          },
          {
            "txId": "057ef664f0e1108f270729e53a62e4cb1a7480d9a87f543c6a1a785a1e492c65",
            "vout": 0,
            "signs": [
              {
                "keyPair": "KzRGFiqhXB7SyX6idHQkt77B8mX7adnujdg3VG47jdVK2x4wbUYg",
                "hashType": 1,
                "value": 40000
              }
            ],
            "sequence": 4294967295,
            "prevTxScript": "OP_DUP OP_HASH160 0de1f9b92d2ab6d8ead83f9a0ff5cf518dcb03b8 OP_EQUALVERIFY OP_CHECKSIG"
          },
          {
            "txId": "35db95c66634c3497a277c1f08ed71a0cb53195ffecbf9798cdde4a30f27fab9",
            "vout": 0,
            "signs": [
              {
                "keyPair": "KzRGFiqhXB7SyX6idHQkt77B8mX7adnujdg3VG47jdVK2x4wbUYg",
                "hashType": 1,
                "value": 40000
              }
            ],
            "sequence": 4294967295,
            "prevTxScript": "OP_DUP OP_HASH160 0de1f9b92d2ab6d8ead83f9a0ff5cf518dcb03b8 OP_EQUALVERIFY OP_CHECKSIG"
          }
        ],
        "outputs": [
          {
            "value": 20000,
            "script": "OP_DUP OP_HASH160 9ed1f577c60e4be1dbf35318ec12f51d25e85773 OP_EQUALVERIFY OP_CHECKSIG"
          },
          {
            "value": 30000,
            "script": "OP_DUP OP_HASH160 fb407e88c48921d5547d899e18a7c0a36919f54d OP_EQUALVERIFY OP_CHECKSIG"
          },
          {
            "value": 50000,
            "script": "OP_DUP OP_HASH160 04ccb4eed8cfa9f6e394e945178960f5ccddb387 OP_EQUALVERIFY OP_CHECKSIG"
          }
        ]
      },
      {
        "description": "SIGHASH ALL | ANYONECANPAY",
        "txHex": "01000000037db7f0b2a345ded6ddf28da3211a7d7a95a2943e9a879493d6481b7d69613f04010000006b483045022100bd2829550e9b3a081747281029b5f5a96bbd83bb6a92fa2f8310f1bd0d53abc90220071b469417c55cdb3b04171fd7900d2768981b7ab011553d84d24ea85d277079812102f1c7eac9200f8dee7e34e59318ff2076c8b3e3ac7f43121e57569a1aec1803d4ffffffff652c491e5a781a6a3c547fa8d980741acbe4623ae52907278f10e1f064f67e05000000006a47304402206295e17c45c6356ffb20365b696bcbb869db7e8697f4b8a684098ee2bff85feb02202905c441abe39ec9c480749236b84fdd3ebd91ecd25b559136370aacfcf2815c812102f1c7eac9200f8dee7e34e59318ff2076c8b3e3ac7f43121e57569a1aec1803d4ffffffffb9fa270fa3e4dd8c79f9cbfe5f1953cba071ed081f7c277a49c33466c695db35000000006b483045022100f58e7c98ac8412944d575bcdece0e5966d4018f05988b5b60b6f46b8cb7a543102201c5854d3361e29b58123f34218cec2c722f5ec7a08235ebd007ec637b07c193a812102f1c7eac9200f8dee7e34e59318ff2076c8b3e3ac7f43121e57569a1aec1803d4ffffffff03204e0000000000001976a9149ed1f577c60e4be1dbf35318ec12f51d25e8577388ac30750000000000001976a914fb407e88c48921d5547d899e18a7c0a36919f54d88ac50c30000000000001976a91404ccb4eed8cfa9f6e394e945178960f5ccddb38788ac00000000",
        "version": 1,
        "inputs": [
          {
            "txId": "043f61697d1b48d69394879a3e94a2957a7d1a21a38df2ddd6de45a3b2f0b77d",
            "vout": 1,
            "signs": [
              {
                "keyPair": "KzRGFiqhXB7SyX6idHQkt77B8mX7adnujdg3VG47jdVK2x4wbUYg",
                "hashType": 129,
                "value": 40000
              }
            ],
            "sequence": 4294967295,
            "prevTxScript": "OP_DUP OP_HASH160 0de1f9b92d2ab6d8ead83f9a0ff5cf518dcb03b8 OP_EQUALVERIFY OP_CHECKSIG"
          },
          {
            "txId": "057ef664f0e1108f270729e53a62e4cb1a7480d9a87f543c6a1a785a1e492c65",
            "vout": 0,
            "signs": [
              {
                "keyPair": "KzRGFiqhXB7SyX6idHQkt77B8mX7adnujdg3VG47jdVK2x4wbUYg",
                "hashType": 129,
                "value": 40000
              }
            ],
            "sequence": 4294967295,
            "prevTxScript": "OP_DUP OP_HASH160 0de1f9b92d2ab6d8ead83f9a0ff5cf518dcb03b8 OP_EQUALVERIFY OP_CHECKSIG"
          },
          {
            "txId": "35db95c66634c3497a277c1f08ed71a0cb53195ffecbf9798cdde4a30f27fab9",
            "vout": 0,
            "signs": [
              {
                "keyPair": "KzRGFiqhXB7SyX6idHQkt77B8mX7adnujdg3VG47jdVK2x4wbUYg",
                "hashType": 129,
                "value": 40000
              }
            ],
            "sequence": 4294967295,
            "prevTxScript": "OP_DUP OP_HASH160 0de1f9b92d2ab6d8ead83f9a0ff5cf518dcb03b8 OP_EQUALVERIFY OP_CHECKSIG"
          }
        ],
        "outputs": [
          {
            "value": 20000,
            "script": "OP_DUP OP_HASH160 9ed1f577c60e4be1dbf35318ec12f51d25e85773 OP_EQUALVERIFY OP_CHECKSIG"
          },
          {
            "value": 30000,
            "script": "OP_DUP OP_HASH160 fb407e88c48921d5547d899e18a7c0a36919f54d OP_EQUALVERIFY OP_CHECKSIG"
          },
          {
            "value": 50000,
            "script": "OP_DUP OP_HASH160 04ccb4eed8cfa9f6e394e945178960f5ccddb387 OP_EQUALVERIFY OP_CHECKSIG"
          }
        ]
      },
      {
        "description": "SIGHASH SINGLE",
        "txHex": "01000000037db7f0b2a345ded6ddf28da3211a7d7a95a2943e9a879493d6481b7d69613f04010000006b483045022100e822f152bb15a1d623b91913cd0fb915e9f85a8dc6c26d51948208bbc0218e800220255f78549d9614c88eac9551429bc00224f22cdcb41a3af70d52138f7e98d333032102f1c7eac9200f8dee7e34e59318ff2076c8b3e3ac7f43121e57569a1aec1803d4ffffffff652c491e5a781a6a3c547fa8d980741acbe4623ae52907278f10e1f064f67e05000000006a47304402206f37f79adeb86e0e2da679f79ff5c3ba206c6d35cd9a21433f0de34ee83ddbc00220118cabbac5d83b3aa4c2dc01b061e4b2fe83750d85a72ae6a1752300ee5d9aff032102f1c7eac9200f8dee7e34e59318ff2076c8b3e3ac7f43121e57569a1aec1803d4ffffffffb9fa270fa3e4dd8c79f9cbfe5f1953cba071ed081f7c277a49c33466c695db35000000006a473044022042ac843d220a56b3de05f24c85a63e71efa7e5fc7c2ec766a2ffae82a88572b0022051a816b317313ea8d90010a77c3e02d41da4a500e67e6a5347674f836f528d82032102f1c7eac9200f8dee7e34e59318ff2076c8b3e3ac7f43121e57569a1aec1803d4ffffffff03204e0000000000001976a9149ed1f577c60e4be1dbf35318ec12f51d25e8577388ac30750000000000001976a914fb407e88c48921d5547d899e18a7c0a36919f54d88ac50c30000000000001976a91404ccb4eed8cfa9f6e394e945178960f5ccddb38788ac00000000",
        "version": 1,
        "inputs": [
          {
            "txId": "043f61697d1b48d69394879a3e94a2957a7d1a21a38df2ddd6de45a3b2f0b77d",
            "vout": 1,
            "signs": [
              {
                "keyPair": "KzRGFiqhXB7SyX6idHQkt77B8mX7adnujdg3VG47jdVK2x4wbUYg",
                "hashType": 3,
                "value": 40000
              }
            ],
            "sequence": 4294967295,
            "prevTxScript": "OP_DUP OP_HASH160 0de1f9b92d2ab6d8ead83f9a0ff5cf518dcb03b8 OP_EQUALVERIFY OP_CHECKSIG"
          },
          {
            "txId": "057ef664f0e1108f270729e53a62e4cb1a7480d9a87f543c6a1a785a1e492c65",
            "vout": 0,
            "signs": [
              {
                "keyPair": "KzRGFiqhXB7SyX6idHQkt77B8mX7adnujdg3VG47jdVK2x4wbUYg",
                "hashType": 3,
                "value": 40000
              }
            ],
            "sequence": 4294967295,
            "prevTxScript": "OP_DUP OP_HASH160 0de1f9b92d2ab6d8ead83f9a0ff5cf518dcb03b8 OP_EQUALVERIFY OP_CHECKSIG"
          },
          {
            "txId": "35db95c66634c3497a277c1f08ed71a0cb53195ffecbf9798cdde4a30f27fab9",
            "vout": 0,
            "signs": [
              {
                "keyPair": "KzRGFiqhXB7SyX6idHQkt77B8mX7adnujdg3VG47jdVK2x4wbUYg",
                "hashType": 3,
                "value": 40000
              }
            ],
            "sequence": 4294967295,
            "prevTxScript": "OP_DUP OP_HASH160 0de1f9b92d2ab6d8ead83f9a0ff5cf518dcb03b8 OP_EQUALVERIFY OP_CHECKSIG"
          }
        ],
        "outputs": [
          {
            "value": 20000,
            "script": "OP_DUP OP_HASH160 9ed1f577c60e4be1dbf35318ec12f51d25e85773 OP_EQUALVERIFY OP_CHECKSIG"
          },
          {
            "value": 30000,
            "script": "OP_DUP OP_HASH160 fb407e88c48921d5547d899e18a7c0a36919f54d OP_EQUALVERIFY OP_CHECKSIG"
          },
          {
            "value": 50000,
            "script": "OP_DUP OP_HASH160 04ccb4eed8cfa9f6e394e945178960f5ccddb387 OP_EQUALVERIFY OP_CHECKSIG"
          }
        ]
      },
      {
        "description": "SIGHASH SINGLE|ANYONECANPAY",
        "txHex": "01000000037db7f0b2a345ded6ddf28da3211a7d7a95a2943e9a879493d6481b7d69613f04010000006b483045022100d05a3b6cf2f0301000b0e45c09054f2c61570ce8798ebf571eef72da3b1c94a1022016d7ef3c133fa703bae2c75158ea08d335ac698506f99b3c369c37a9e8fc4beb832102f1c7eac9200f8dee7e34e59318ff2076c8b3e3ac7f43121e57569a1aec1803d4ffffffff652c491e5a781a6a3c547fa8d980741acbe4623ae52907278f10e1f064f67e05000000006b483045022100ee6bf07b051001dcbfa062692a40adddd070303286b714825b3fb4693dd8fcdb022056610885e5053e5d47f2be3433051305abe7978ead8f7cf2d0368947aff6b307832102f1c7eac9200f8dee7e34e59318ff2076c8b3e3ac7f43121e57569a1aec1803d4ffffffffb9fa270fa3e4dd8c79f9cbfe5f1953cba071ed081f7c277a49c33466c695db35000000006b483045022100cfc930d5b5272d0220d9da98fabec97b9e66306f735efa837f43f6adc675cad902202f9dff76b8b9ec8f613d46094f17f64d875804292d8804aa59fd295b6fc1416b832102f1c7eac9200f8dee7e34e59318ff2076c8b3e3ac7f43121e57569a1aec1803d4ffffffff03204e0000000000001976a9149ed1f577c60e4be1dbf35318ec12f51d25e8577388ac30750000000000001976a914fb407e88c48921d5547d899e18a7c0a36919f54d88ac50c30000000000001976a91404ccb4eed8cfa9f6e394e945178960f5ccddb38788ac00000000",
        "version": 1,
        "inputs": [
          {
            "txId": "043f61697d1b48d69394879a3e94a2957a7d1a21a38df2ddd6de45a3b2f0b77d",
            "vout": 1,
            "signs": [
              {
                "keyPair": "KzRGFiqhXB7SyX6idHQkt77B8mX7adnujdg3VG47jdVK2x4wbUYg",
                "hashType": 131,
                "value": 40000
              }
            ],
            "sequence": 4294967295,
            "prevTxScript": "OP_DUP OP_HASH160 0de1f9b92d2ab6d8ead83f9a0ff5cf518dcb03b8 OP_EQUALVERIFY OP_CHECKSIG"
          },
          {
            "txId": "057ef664f0e1108f270729e53a62e4cb1a7480d9a87f543c6a1a785a1e492c65",
            "vout": 0,
            "signs": [
              {
                "keyPair": "KzRGFiqhXB7SyX6idHQkt77B8mX7adnujdg3VG47jdVK2x4wbUYg",
                "hashType": 131,
                "value": 40000
              }
            ],
            "sequence": 4294967295,
            "prevTxScript": "OP_DUP OP_HASH160 0de1f9b92d2ab6d8ead83f9a0ff5cf518dcb03b8 OP_EQUALVERIFY OP_CHECKSIG"
          },
          {
            "txId": "35db95c66634c3497a277c1f08ed71a0cb53195ffecbf9798cdde4a30f27fab9",
            "vout": 0,
            "signs": [
              {
                "keyPair": "KzRGFiqhXB7SyX6idHQkt77B8mX7adnujdg3VG47jdVK2x4wbUYg",
                "hashType": 131,
                "value": 40000
              }
            ],
            "sequence": 4294967295,
            "prevTxScript": "OP_DUP OP_HASH160 0de1f9b92d2ab6d8ead83f9a0ff5cf518dcb03b8 OP_EQUALVERIFY OP_CHECKSIG"
          }
        ],
        "outputs": [
          {
            "value": 20000,
            "script": "OP_DUP OP_HASH160 9ed1f577c60e4be1dbf35318ec12f51d25e85773 OP_EQUALVERIFY OP_CHECKSIG"
          },
          {
            "value": 30000,
            "script": "OP_DUP OP_HASH160 fb407e88c48921d5547d899e18a7c0a36919f54d OP_EQUALVERIFY OP_CHECKSIG"
          },
          {
            "value": 50000,
            "script": "OP_DUP OP_HASH160 04ccb4eed8cfa9f6e394e945178960f5ccddb387 OP_EQUALVERIFY OP_CHECKSIG"
          }
        ]
      },
      {
        "description": "SIGHASH NONE",
        "txHex": "01000000037db7f0b2a345ded6ddf28da3211a7d7a95a2943e9a879493d6481b7d69613f04010000006b483045022100e7f0a1ddd2c0b81e093e029b8a503afa27fe43549b0668d2141abf35eb3a63be022037f12d12cd50fc94a135f933406a8937557de9b9566a8841ff1548c1b6984531022102f1c7eac9200f8dee7e34e59318ff2076c8b3e3ac7f43121e57569a1aec1803d4ffffffff652c491e5a781a6a3c547fa8d980741acbe4623ae52907278f10e1f064f67e05000000006a473044022008451123ec2535dab545ade9d697519e63b28df5e311ea05e0ce28d39877a7c8022061ce5dbfb7ab478dd9e05b0acfd959ac3eb2641f61958f5d352f37621073d7c0022102f1c7eac9200f8dee7e34e59318ff2076c8b3e3ac7f43121e57569a1aec1803d4ffffffffb9fa270fa3e4dd8c79f9cbfe5f1953cba071ed081f7c277a49c33466c695db35000000006a47304402205c001bcdfb35c70d8aa3bdbc75399afb72eb7cf1926ca7c1dfcddcb4d4d3e0f8022028992fffdcd4e9f34ab726f97c24157917641c2ef99361f588e3d4147d46eea5022102f1c7eac9200f8dee7e34e59318ff2076c8b3e3ac7f43121e57569a1aec1803d4ffffffff03204e0000000000001976a9149ed1f577c60e4be1dbf35318ec12f51d25e8577388ac30750000000000001976a914fb407e88c48921d5547d899e18a7c0a36919f54d88ac50c30000000000001976a91404ccb4eed8cfa9f6e394e945178960f5ccddb38788ac00000000",
        "version": 1,
        "inputs": [
          {
            "txId": "043f61697d1b48d69394879a3e94a2957a7d1a21a38df2ddd6de45a3b2f0b77d",
            "vout": 1,
            "signs": [
              {
                "keyPair": "KzRGFiqhXB7SyX6idHQkt77B8mX7adnujdg3VG47jdVK2x4wbUYg",
                "hashType": 2,
                "value": 40000
              }
            ],
            "sequence": 4294967295,
            "prevTxScript": "OP_DUP OP_HASH160 0de1f9b92d2ab6d8ead83f9a0ff5cf518dcb03b8 OP_EQUALVERIFY OP_CHECKSIG"
          },
          {
            "txId": "057ef664f0e1108f270729e53a62e4cb1a7480d9a87f543c6a1a785a1e492c65",
            "vout": 0,
            "signs": [
              {
                "keyPair": "KzRGFiqhXB7SyX6idHQkt77B8mX7adnujdg3VG47jdVK2x4wbUYg",
                "hashType": 2,
                "value": 40000
              }
            ],
            "sequence": 4294967295,
            "prevTxScript": "OP_DUP OP_HASH160 0de1f9b92d2ab6d8ead83f9a0ff5cf518dcb03b8 OP_EQUALVERIFY OP_CHECKSIG"
          },
          {
            "txId": "35db95c66634c3497a277c1f08ed71a0cb53195ffecbf9798cdde4a30f27fab9",
            "vout": 0,
            "signs": [
              {
                "keyPair": "KzRGFiqhXB7SyX6idHQkt77B8mX7adnujdg3VG47jdVK2x4wbUYg",
                "hashType": 2,
                "value": 40000
              }
            ],
            "sequence": 4294967295,
            "prevTxScript": "OP_DUP OP_HASH160 0de1f9b92d2ab6d8ead83f9a0ff5cf518dcb03b8 OP_EQUALVERIFY OP_CHECKSIG"
          }
        ],
        "outputs": [
          {
            "value": 20000,
            "script": "OP_DUP OP_HASH160 9ed1f577c60e4be1dbf35318ec12f51d25e85773 OP_EQUALVERIFY OP_CHECKSIG"
          },
          {
            "value": 30000,
            "script": "OP_DUP OP_HASH160 fb407e88c48921d5547d899e18a7c0a36919f54d OP_EQUALVERIFY OP_CHECKSIG"
          },
          {
            "value": 50000,
            "script": "OP_DUP OP_HASH160 04ccb4eed8cfa9f6e394e945178960f5ccddb387 OP_EQUALVERIFY OP_CHECKSIG"
          }
        ]
      },
      {
        "description": "SIGHASH NONE | ANYONECANPAY",
        "txHex": "01000000037db7f0b2a345ded6ddf28da3211a7d7a95a2943e9a879493d6481b7d69613f04010000006a47304402204ed272952177aaa5a1b171c2ca5a7a3d300ffcd7e04b040c0baaa4e3561862a502207e65a5b8f99c8a632b186c8a60496a12bf3116f51909b7497413aefdc3be7bf6822102f1c7eac9200f8dee7e34e59318ff2076c8b3e3ac7f43121e57569a1aec1803d4ffffffff652c491e5a781a6a3c547fa8d980741acbe4623ae52907278f10e1f064f67e05000000006a47304402203ec365300cc67602f4cc5be027959d3667b48db34c6c87d267c94a7e210d5c1f02204843350311c0a9711cad1960b17ce9e323a1ce6f37deefc3ffe63082d480be92822102f1c7eac9200f8dee7e34e59318ff2076c8b3e3ac7f43121e57569a1aec1803d4ffffffffb9fa270fa3e4dd8c79f9cbfe5f1953cba071ed081f7c277a49c33466c695db35000000006b48304502210084f86f905c36372eff9c54ccd509a519a3325bcace8abfeed7ed3f0d579979e902201ff330dd2402e5ca9989a8a294fa36d6cf3a093edb18d29c9d9644186a3efeb4822102f1c7eac9200f8dee7e34e59318ff2076c8b3e3ac7f43121e57569a1aec1803d4ffffffff03204e0000000000001976a9149ed1f577c60e4be1dbf35318ec12f51d25e8577388ac30750000000000001976a914fb407e88c48921d5547d899e18a7c0a36919f54d88ac50c30000000000001976a91404ccb4eed8cfa9f6e394e945178960f5ccddb38788ac00000000",
        "version": 1,
        "inputs": [
          {
            "txId": "043f61697d1b48d69394879a3e94a2957a7d1a21a38df2ddd6de45a3b2f0b77d",
            "vout": 1,
            "signs": [
              {
                "keyPair": "KzRGFiqhXB7SyX6idHQkt77B8mX7adnujdg3VG47jdVK2x4wbUYg",
                "hashType": 130,
                "value": 40000
              }
            ],
            "sequence": 4294967295,
            "prevTxScript": "OP_DUP OP_HASH160 0de1f9b92d2ab6d8ead83f9a0ff5cf518dcb03b8 OP_EQUALVERIFY OP_CHECKSIG"
          },
          {
            "txId": "057ef664f0e1108f270729e53a62e4cb1a7480d9a87f543c6a1a785a1e492c65",
            "vout": 0,
            "signs": [
              {
                "keyPair": "KzRGFiqhXB7SyX6idHQkt77B8mX7adnujdg3VG47jdVK2x4wbUYg",
                "hashType": 130,
                "value": 40000
              }
            ],
            "sequence": 4294967295,
            "prevTxScript": "OP_DUP OP_HASH160 0de1f9b92d2ab6d8ead83f9a0ff5cf518dcb03b8 OP_EQUALVERIFY OP_CHECKSIG"
          },
          {
            "txId": "35db95c66634c3497a277c1f08ed71a0cb53195ffecbf9798cdde4a30f27fab9",
            "vout": 0,
            "signs": [
              {
                "keyPair": "KzRGFiqhXB7SyX6idHQkt77B8mX7adnujdg3VG47jdVK2x4wbUYg",
                "hashType": 130,
                "value": 40000
              }
            ],
            "sequence": 4294967295,
            "prevTxScript": "OP_DUP OP_HASH160 0de1f9b92d2ab6d8ead83f9a0ff5cf518dcb03b8 OP_EQUALVERIFY OP_CHECKSIG"
          }
        ],
        "outputs": [
          {
            "value": 20000,
            "script": "OP_DUP OP_HASH160 9ed1f577c60e4be1dbf35318ec12f51d25e85773 OP_EQUALVERIFY OP_CHECKSIG"
          },
          {
            "value": 30000,
            "script": "OP_DUP OP_HASH160 fb407e88c48921d5547d899e18a7c0a36919f54d OP_EQUALVERIFY OP_CHECKSIG"
          },
          {
            "value": 50000,
            "script": "OP_DUP OP_HASH160 04ccb4eed8cfa9f6e394e945178960f5ccddb387 OP_EQUALVERIFY OP_CHECKSIG"
          }
        ]
      },
      {
        "description": "P2PKH",
        "txHex": "010000000176d7b05b96e69d9760bacf14e496ea01085eff32be8f4e08b299eb92057826e5000000006b4830450221009bd6ff2561437155913c289923175d3f114cca1c0e2bc5989315d5261502c2c902201b71ad90dce076a5eb872330ed729e7c2c4bc2d0513efff099dbefb3b62eab4f0121038de63cf582d058a399a176825c045672d5ff8ea25b64d28d4375dcdb14c02b2bffffffff0160ea0000000000001976a914851a33a5ef0d4279bd5854949174e2c65b1d450088ac00000000",
        "version": 1,
        "inputs": [
          {
            "txId": "e526780592eb99b2084e8fbe32ff5e0801ea96e414cfba60979de6965bb0d776",
            "vout": 0,
            "signs": [
              {
                "keyPair": "L2FroWqrUgsPpTMhpXcAFnVDLPTToDbveh3bhDaU4jhe7Cw6YujN",
                "hashType": 1,
                "value": 80000
              }
            ],
            "sequence": 4294967295,
            "prevTxScript": "OP_DUP OP_HASH160 851a33a5ef0d4279bd5854949174e2c65b1d4500 OP_EQUALVERIFY OP_CHECKSIG"
          }
        ],
        "outputs": [
          {
            "value": 60000,
            "script": "OP_DUP OP_HASH160 851a33a5ef0d4279bd5854949174e2c65b1d4500 OP_EQUALVERIFY OP_CHECKSIG"
          }
        ],
        "locktime": 0
      }
    ],
    "fromTransaction": []
  },
  "invalid": {
    "build": [
      {
        "exception": "Transaction has no inputs",
        "inputs": [],
        "outputs": [
          {
            "script": "OP_DUP OP_HASH160 aa4d7985c57e011a8b3dd8e0e5a73aaef41629c5 OP_EQUALVERIFY OP_CHECKSIG",
            "value": 1000
          }
        ]
      },
      {
        "exception": "Transaction has no outputs",
        "inputs": [
          {
            "txId": "ffffffffffffffffffffffffffffffffffffffffffffffffffffffffffffffff",
            "vout": 0
          }
        ],
        "outputs": []
      },
      {
        "exception": "Transaction has absurd fees",
        "inputs": [
          {
            "txRaw": {
              "inputs": [],
              "outputs": [
                {
                  "address": "1C5XhB1UkFuyCV1CG9dmXaXGu3xDL4nAjv",
                  "value": 1000000000
                }
              ],
              "incomplete": true
            },
            "vout": 0,
            "signs": [
              {
                "keyPair": "KzBQVXYUGDAvqG7VeU3C7ZMRYiwtsxSVVFcYGzKU9E4aUVDUquZU"
              }
            ]
          }
        ],
        "outputs": [
          {
            "script": "OP_DUP OP_HASH160 ff99e06c1a4ac394b4e1cb3d3a4b2b47749e339a OP_EQUALVERIFY OP_CHECKSIG",
            "value": 200000
          }
        ]
      },
      {
        "description": "Incomplete transaction, nothing assumed",
        "exception": "Transaction is not complete",
        "inputs": [
          {
            "txId": "ffffffffffffffffffffffffffffffffffffffffffffffffffffffffffffffff",
            "vout": 0
          }
        ],
        "outputs": [
          {
            "script": "OP_DUP OP_HASH160 aa4d7985c57e011a8b3dd8e0e5a73aaef41629c5 OP_EQUALVERIFY OP_CHECKSIG",
            "value": 1000
          }
        ]
      },
      {
        "description": "Incomplete transaction, known prevTxScript, thereby throws for missing signatures",
        "exception": "Transaction is not complete",
        "inputs": [
          {
            "txId": "ffffffffffffffffffffffffffffffffffffffffffffffffffffffffffffffff",
            "vout": 0,
            "signs": [
              {
                "keyPair": "KwDiBf89QgGbjEhKnhXJuH7LrciVrZi3qYjgd9M7rFU73sVHnoWn"
              }
            ]
          },
          {
            "txId": "ffffffffffffffffffffffffffffffffffffffffffffffffffffffffffffffff",
            "vout": 1,
            "prevTxScript": "OP_DUP OP_HASH160 aa4d7985c57e011a8b3dd8e0e5a73aaef41629c5 OP_EQUALVERIFY OP_CHECKSIG"
          }
        ],
        "outputs": [
          {
            "script": "OP_DUP OP_HASH160 aa4d7985c57e011a8b3dd8e0e5a73aaef41629c5 OP_EQUALVERIFY OP_CHECKSIG",
            "value": 1000
          }
        ]
      },
      {
        "description": "Duplicate transaction outs",
        "exception": "Duplicate TxOut: ffffffffffffffffffffffffffffffffffffffffffffffffffffffffffffffff:0",
        "incomplete": true,
        "inputs": [
          {
            "txId": "ffffffffffffffffffffffffffffffffffffffffffffffffffffffffffffffff",
            "vout": 0
          },
          {
            "txId": "ffffffffffffffffffffffffffffffffffffffffffffffffffffffffffffffff",
            "vout": 0
          }
        ],
        "outputs": [
          {
            "script": "OP_DUP OP_HASH160 aa4d7985c57e011a8b3dd8e0e5a73aaef41629c5 OP_EQUALVERIFY OP_CHECKSIG",
            "value": 1000
          }
        ]
      }
    ],
    "sign": [
      {
        "description": "Too many signatures - P2PKH",
        "exception": "Signature already exists",
        "inputs": [
          {
            "txId": "ffffffffffffffffffffffffffffffffffffffffffffffffffffffffffffffff",
            "vout": 1,
            "signs": [
              {
                "keyPair": "KwDiBf89QgGbjEhKnhXJuH7LrciVrZi3qYjgd9M7rFU73sVHnoWn"
              },
              {
                "keyPair": "KwDiBf89QgGbjEhKnhXJuH7LrciVrZi3qYjgd9M7rFU73sVHnoWn",
                "throws": true
              }
            ]
          }
        ],
        "outputs": [
          {
            "script": "OP_DUP OP_HASH160 aa4d7985c57e011a8b3dd8e0e5a73aaef41629c5 OP_EQUALVERIFY OP_CHECKSIG",
            "value": 1000
          }
        ]
      },
      {
        "description": "Wrong network for keyPair",
        "exception": "Inconsistent network",
        "network": "bitcoin",
        "inputs": [
          {
            "txId": "ffffffffffffffffffffffffffffffffffffffffffffffffffffffffffffffff",
            "vout": 0,
            "signs": [
              {
                "keyPair": "91avARGdfge8E4tZfYLoxeJ5sGBdNJQH4kvjJoQFacbgwmaKkrx",
                "network": "testnet",
                "throws": true
              }
            ]
          }
        ],
        "outputs": [
          {
            "script": "OP_DUP OP_HASH160 aa4d7985c57e011a8b3dd8e0e5a73aaef41629c5 OP_EQUALVERIFY OP_CHECKSIG",
            "value": 1000
          }
        ]
      },
      {
        "description": "Transaction w/ no outputs (but 1 SIGHASH_NONE)",
        "exception": "Transaction needs outputs",
        "inputs": [
          {
            "txId": "ffffffffffffffffffffffffffffffffffffffffffffffffffffffffffffffff",
            "vout": 0,
            "signs": [
              {
                "keyPair": "KwDiBf89QgGbjEhKnhXJuH7LrciVrZi3qYjgd9M7rFU73sVHnoWn",
                "hashType": 2
              }
            ]
          },
          {
            "txId": "ffffffffffffffffffffffffffffffffffffffffffffffffffffffffffffffff",
            "vout": 1,
            "signs": [
              {
                "keyPair": "KwDiBf89QgGbjEhKnhXJuH7LrciVrZi3qYjgd9M7rFU73sVHnoWn",
                "throws": true
              }
            ]
          }
        ],
        "outputs": []
      },
      {
        "description": "Transaction w/ no outputs",
        "exception": "Transaction needs outputs",
        "inputs": [
          {
            "txId": "ffffffffffffffffffffffffffffffffffffffffffffffffffffffffffffffff",
            "vout": 0,
            "signs": [
              {
                "keyPair": "KwDiBf89QgGbjEhKnhXJuH7LrciVrZi3qYjgd9M7rFU73sVHnoWn",
                "throws": true
              }
            ]
          }
        ],
        "outputs": []
      }
    ],
    "fromTransaction": [
      {
        "exception": "coinbase inputs not supported",
        "txHex": "01000000010000000000000000000000000000000000000000000000000000000000000000000000006b483045022100a3b254e1c10b5d039f36c05f323995d6e5a367d98dd78a13d5bbc3991b35720e022022fccea3897d594de0689601fbd486588d5bfa6915be2386db0397ee9a6e80b601210279be667ef9dcbbac55a06295ce870b07029bfcdb2dce28d959f2815b16f81798ffffffff0110270000000000001976a914aa4d7985c57e011a8b3dd8e0e5a73aaef41629c588ac00000000"
      }
    ]
  }
}
